{
  "contractName": "HelloCeloDevs",
  "abi": [
    {
      "inputs": [
        {
          "internalType": "string",
          "name": "_name",
          "type": "string"
        }
      ],
      "name": "setName",
      "outputs": [],
      "stateMutability": "nonpayable",
      "type": "function"
    },
    {
      "inputs": [],
      "name": "sayHello",
      "outputs": [
        {
          "internalType": "string",
          "name": "",
          "type": "string"
        }
      ],
      "stateMutability": "view",
      "type": "function",
      "constant": true
    },
    {
      "inputs": [],
      "name": "deleteName",
      "outputs": [],
      "stateMutability": "nonpayable",
      "type": "function"
    }
  ],
  "bytecode": "0x608060405234801561001057600080fd5b5061088f806100206000396000f3fe608060405234801561001057600080fd5b506004361061005e576000357c0100000000000000000000000000000000000000000000000000000000900480633209207e14610063578063c47f00271461006d578063ef5fb05b14610089575b600080fd5b61006b6100a7565b005b61008760048036038101906100829190610590565b6100f6565b005b610091610197565b60405161009e91906106ac565b60405180910390f35b6000803273ffffffffffffffffffffffffffffffffffffffff1673ffffffffffffffffffffffffffffffffffffffff16815260200190815260200160002060000160006100f49190610445565b565b6100ff816103f1565b61013e576040517f08c379a0000000000000000000000000000000000000000000000000000000008152600401610135906106ce565b60405180910390fd5b806000803273ffffffffffffffffffffffffffffffffffffffff1673ffffffffffffffffffffffffffffffffffffffff1681526020019081526020016000206000019080519060200190610193929190610485565b5050565b606061026b6000803273ffffffffffffffffffffffffffffffffffffffff1673ffffffffffffffffffffffffffffffffffffffff16815260200190815260200160002060000180546101e8906107b8565b80601f0160208091040260200160405190810160405280929190818152602001828054610214906107b8565b80156102615780601f1061023657610100808354040283529160200191610261565b820191906000526020600020905b81548152906001019060200180831161024457829003601f168201915b50505050506103f1565b156103b5576103ae6040518060400160405280600681526020017f48656c6c6f2000000000000000000000000000000000000000000000000000008152506000803273ffffffffffffffffffffffffffffffffffffffff1673ffffffffffffffffffffffffffffffffffffffff16815260200190815260200160002060000180546102f5906107b8565b80601f0160208091040260200160405190810160405280929190818152602001828054610321906107b8565b801561036e5780601f106103435761010080835404028352916020019161036e565b820191906000526020600020905b81548152906001019060200180831161035157829003601f168201915b50505050506040518060400160405280600181526020017f2100000000000000000000000000000000000000000000000000000000000000815250610416565b90506103ee565b6040518060400160405280601081526020017f48656c6c6f2043656c6f2044657673210000000000000000000000000000000081525090505b90565b60008082905060008151141561040b576000915050610411565b60019150505b919050565b606083838360405160200161042d9392919061067b565b60405160208183030381529060405290509392505050565b508054610451906107b8565b6000825580601f106104635750610482565b601f016020900490600052602060002090810190610481919061050b565b5b50565b828054610491906107b8565b90600052602060002090601f0160209004810192826104b357600085556104fa565b82601f106104cc57805160ff19168380011785556104fa565b828001600101855582156104fa579182015b828111156104f95782518255916020019190600101906104de565b5b509050610507919061050b565b5090565b5b8082111561052457600081600090555060010161050c565b5090565b600061053b6105368461071f565b6106ee565b90508281526020810184848401111561055357600080fd5b61055e848285610776565b509392505050565b600082601f83011261057757600080fd5b8135610587848260208601610528565b91505092915050565b6000602082840312156105a257600080fd5b600082013567ffffffffffffffff8111156105bc57600080fd5b6105c884828501610566565b91505092915050565b60006105dc8261074f565b6105e6818561075a565b93506105f6818560208601610785565b6105ff81610848565b840191505092915050565b60006106158261074f565b61061f818561076b565b935061062f818560208601610785565b80840191505092915050565b600061064860188361075a565b91507f4572726f723a206d75737420696e636c756465206461746100000000000000006000830152602082019050919050565b6000610687828661060a565b9150610693828561060a565b915061069f828461060a565b9150819050949350505050565b600060208201905081810360008301526106c681846105d1565b905092915050565b600060208201905081810360008301526106e78161063b565b9050919050565b6000604051905081810181811067ffffffffffffffff8211171561071557610714610819565b5b8060405250919050565b600067ffffffffffffffff82111561073a57610739610819565b5b601f19601f8301169050602081019050919050565b600081519050919050565b600082825260208201905092915050565b600081905092915050565b82818337600083830152505050565b60005b838110156107a3578082015181840152602081019050610788565b838111156107b2576000848401525b50505050565b600060028204905060018216806107d057607f821691505b602082108114156107e4576107e36107ea565b5b50919050565b7f4e487b7100000000000000000000000000000000000000000000000000000000600052602260045260246000fd5b7f4e487b7100000000000000000000000000000000000000000000000000000000600052604160045260246000fd5b6000601f19601f830116905091905056fea2646970667358221220794e8ac430fb2194e427c322368f127156dce2c8b29731ed659a9900868e506c64736f6c63430008000033",
  "immutableReferences": {},
  "source": "pragma solidity >=0.8.0;\n// SPDX-License-Identifier: MIT\ncontract HelloCeloDevs {\n\n    // Data mapping\n    struct DataMap{\n        string _name;\n    }\n\n    // Set map of addresses to DataMap{} structure\n    mapping(address => DataMap) dataMap;\n\n    // Store name within data map\n    function setName(string memory _name) public {\n        require(isString(_name), \"Error: must include data\");\n        dataMap[tx.origin]._name = _name;\n    }\n\n    // Contract call\n    function sayHello() public view returns(string memory){\n        if(isString(dataMap[tx.origin]._name)){\n            return(concatStrings(\"Hello \",dataMap[tx.origin]._name,\"!\"));\n        }\n            return(\"Hello Celo Devs!\");\n    }\n\n    // Delete name from dataMap\n    function deleteName() public {\n        delete dataMap[tx.origin]._name;\n    }\n\n    // String validation\n    function isString(string memory _string) private pure returns(bool){\n        bytes memory stringTest = bytes(_string);\n        if (stringTest.length == 0) {\n            return false;\n        }\n        return true;\n    }\n\n    // Concatenate strings by appending a string to another with ABI encoding\n    function concatStrings(string memory a, string memory b, string memory c) internal pure returns (string memory) {\n        return string(abi.encodePacked(a, b, c));\n    }\n}\n",
  "sourcePath": "/Users/brandycamacho/Development/make-crypto-mobile-hackathon/truffle/contracts/HelloCeloDevs.sol",
  "compiler": {
    "name": "solc",
    "version": "0.8.0+commit.c7dfd78e.Emscripten.clang"
  },
  "schemaVersion": "3.4.3",
  "updatedAt": "2021-10-12T23:02:41.501Z",
  "networkType": "ethereum",
  "devdoc": {
    "kind": "dev",
    "methods": {},
    "version": 1
  },
  "userdoc": {
    "kind": "user",
    "methods": {},
    "version": 1
  }
}